{
  "_format": "hh-sol-artifact-1",
  "contractName": "Transactions",
  "sourceName": "contracts/Transactions.sol",
  "abi": [
    {
      "anonymous": false,
      "inputs": [
        {
          "indexed": false,
          "internalType": "address",
          "name": "sender",
          "type": "address"
        },
        {
          "indexed": false,
          "internalType": "address",
          "name": "receiver",
          "type": "address"
        },
        {
          "indexed": false,
          "internalType": "uint256",
          "name": "amount",
          "type": "uint256"
        },
        {
          "indexed": false,
          "internalType": "string",
          "name": "message",
          "type": "string"
        },
        {
          "indexed": false,
          "internalType": "uint256",
          "name": "timestamp",
          "type": "uint256"
        },
        {
          "indexed": false,
          "internalType": "string",
          "name": "keyword",
          "type": "string"
        }
      ],
      "name": "Transfer",
      "type": "event"
    },
    {
      "inputs": [],
      "name": "addToBlockChain",
      "outputs": [],
      "stateMutability": "nonpayable",
      "type": "function"
    },
    {
      "inputs": [],
      "name": "getAllTransactions",
      "outputs": [
        {
          "components": [
            {
              "internalType": "address",
              "name": "sender",
              "type": "address"
            },
            {
              "internalType": "address",
              "name": "receiver",
              "type": "address"
            },
            {
              "internalType": "uint256",
              "name": "amount",
              "type": "uint256"
            },
            {
              "internalType": "string",
              "name": "message",
              "type": "string"
            },
            {
              "internalType": "uint256",
              "name": "timestamp",
              "type": "uint256"
            },
            {
              "internalType": "string",
              "name": "keyword",
              "type": "string"
            }
          ],
          "internalType": "struct Transactions.TransferStruct[]",
          "name": "",
          "type": "tuple[]"
        }
      ],
      "stateMutability": "view",
      "type": "function"
    },
    {
      "inputs": [],
      "name": "getTransactionCount",
      "outputs": [
        {
          "internalType": "uint256",
          "name": "",
          "type": "uint256"
        }
      ],
      "stateMutability": "view",
      "type": "function"
    }
  ],
  "bytecode": "0x608060405234801561001057600080fd5b506103fd806100206000396000f3fe608060405234801561001057600080fd5b50600436106100415760003560e01c806327506f53146100465780632e7700f014610064578063aec83a5714610082575b600080fd5b61004e61008c565b60405161005b91906102f6565b60405180910390f35b61006c610091565b6040516100799190610327565b60405180910390f35b61008a610096565b005b606090565b600090565b60016000808282546100a89190610371565b92505081905550565b600081519050919050565b600082825260208201905092915050565b6000819050602082019050919050565b600073ffffffffffffffffffffffffffffffffffffffff82169050919050565b6000610108826100dd565b9050919050565b610118816100fd565b82525050565b6000819050919050565b6101318161011e565b82525050565b600081519050919050565b600082825260208201905092915050565b60005b83811015610171578082015181840152602081019050610156565b83811115610180576000848401525b50505050565b6000601f19601f8301169050919050565b60006101a282610137565b6101ac8185610142565b93506101bc818560208601610153565b6101c581610186565b840191505092915050565b600060c0830160008301516101e8600086018261010f565b5060208301516101fb602086018261010f565b50604083015161020e6040860182610128565b50606083015184820360608601526102268282610197565b915050608083015161023b6080860182610128565b5060a083015184820360a08601526102538282610197565b9150508091505092915050565b600061026c83836101d0565b905092915050565b6000602082019050919050565b600061028c826100b1565b61029681856100bc565b9350836020820285016102a8856100cd565b8060005b858110156102e457848403895281516102c58582610260565b94506102d083610274565b925060208a019950506001810190506102ac565b50829750879550505050505092915050565b600060208201905081810360008301526103108184610281565b905092915050565b6103218161011e565b82525050565b600060208201905061033c6000830184610318565b92915050565b7f4e487b7100000000000000000000000000000000000000000000000000000000600052601160045260246000fd5b600061037c8261011e565b91506103878361011e565b9250827fffffffffffffffffffffffffffffffffffffffffffffffffffffffffffffffff038211156103bc576103bb610342565b5b82820190509291505056fea2646970667358221220fa7c5a0eb54c7de59c48732f99d777423b1824ed9d71e04c7801d7ed87ce483d64736f6c63430008090033",
  "linkReferences": {},
  "deployedLinkReferences": {}
}